:100000000C945F030C94A6030C94A6030C94A60313
:100010000C94A6030C94A6030C94A6030C94A603BC
:100020000C94A6030C94A6030C94E4280C94B62913
:100030000C94CF1E0C94A6030C94A6030C94A60358
:100040000C94A6030C94A6030C94A6030C94A6038C
:100050000C94A6030C943F1F0C94A6030C94A603C7
:100060000C94A6030C94A6030C94A6030C94A6036C
:100070000C94A6030C94A6030C94A6030C94A6035C
:100080000C94A6030C94A6030C94A6030C94A6034C
:100090000C94A6030C94A6030C94A6030C94A6033C
:1000A0000C94A6030C94A6030C94A6038206840663
:1000B000860688068A068C068E06900692069406A8
:1000C000960698069A069C069E06A006A206A40618
:1000D00029002B000251E100E00000001E00140086
:1000E00004001D00E30001511F001A0016001B0050
:1000F000E2002A0020000800070006004A002C0049
:1001000021001500090019004D00025122001700BE
:100110000A000500000000030100300000008A0012
:10012000000000050100310000008B0000006500A8
:1001300023001C000B00110000004C0024001800DC
:100140000D0010008900025125000C000E00360041
:100150002E002800260012000F003700E2002B00BE
:100160002700130033003800E70001512D002F0055
:1001700034418762E4000000010001000100010039
:100180000100000001000100010001300100010038
:10019000010001004608010001000100010001000A
:1001A0001801010001000100010001000C03010021
:1001B0000100010001000100010001000000010038
:1001C0000100010000000100000001000100010029
:1001D0000000010000000100010052005100010078
:1001E000000001000100240021001E002700010082
:1001F0000100250022001F0001000100220226004C
:100200002300200037000100380034022D003302A3
:100210002D020100010001000100010001000000A9
:100220000100010001000100010000003A0001008E
:1002300001000100010001003B000100F20001008B
:100240000100F5003C00F000F10001000100F400A5
:100250003D000100F3000100010001003E00F90033
:10026000FA00010000000100007001000000010020
:100270000000010001000100000001000000010079
:100280003F004B004E0001000000FD004000010057
:100290005000010001000100410052005100010026
:1002A00001004F04420001004F0001000100500412
:1002B00043004A004D0001000100010044004500D8
:1002C000010001000100000001160216010C020CE1
:1002D000010F020F01190219010802080115021588
:1002E00001050205010C020C0115021501070207A8
:1002F00001080208011502150001E2012C000000AE
:1003000000000001010101010101010102020202DC
:1003100002020202020303030303030303040404AF
:100320000404040505050505060606060607070775
:1003300007080808080909090A0A0A0A0B0B0B0C26
:100340000C0C0D0D0D0E0E0F0F0F101011111112C0
:100350001213131414151516161717181819191A3D
:100360001A1B1C1C1D1D1E1F1F202021222223249E
:10037000252526272728292A2B2B2C2D2E2F2F30D9
:10038000313233343536363738393A3B3C3D3E3FEF
:100390004041424344464748494A4B4C4D4F5051D7
:1003A0005253555657585A5B5C5E5F606263646691
:1003B00067696A6C6D6E707173747678797B7C7E18
:1003C0008081838486888A8B8D8F91929496989A67
:1003D0009B9D9FA1A3A5A7A9ABADAFB1B3B5B7B97D
:1003E000BBBDBFC1C4C6C8CACCCFD1D3D6D8DADC56
:1003F000DFE1E4E6E8EBEDF0F2F5F7FAFCFF0000F0
:1004000000000101010202030405050607090A0BA9
:100410000C0E0F1112141517191B1D1F212325284F
:100420002A2C2F313436393B3E414346494C4F52FA
:1004300055585A5D6164676A6D707376797C7F8305
:1004400086898C8F9295989B9EA2A5A7AAADB0B3E2
:10045000B6B9BCBEC1C4C6C9CBCED0D3D5D7DADC01
:10046000DEE0E2E4E6E8EAEBEDEEF0F1F3F4F5F6D7
:10047000F8F9FAFAFBFCFDFDFEFEFEFFFFFFFFFFB1
:10048000FFFFFEFEFEFDFDFCFBFAFAF9F8F6F5F4BF
:10049000F3F1F0EEEDEBEAE8E6E4E2E0DEDCDAD7F9
:1004A000D5D3D0CECBC9C6C4C1BEBCB9B6B3B0AD2E
:1004B000AAA7A5A29E9B9895928F8C898683807C03
:1004C000797673706D6A6764615D5A5855524F4C06
:1004D000494643413E3B393634312F2C2A282523C7
:1004E000211F1D1B1917151412110F0E0C0B0A09D1
:1004F00007060505040302020101010000001E14A5
:100500000A05783C1E643214643214643214050106
:100510000906A101050719E029E71500250195083D
:1005200075018102950175088101050819012905E8
:100530009505750191029501750391010507190053
:1005400029FF150026FF00950675088100C00501EA
:100550000902A1010901A1000509190129051500D8
:10056000250195057501810295017503810105013C
:10057000093009311581257F9502750881060938F2
:100580001581257F950175088106050C0A3802152D
:1005900081257F950175088106C0C005010980A1EC
:1005A0000185021601002603001A81002A830075C6
:1005B0001095018100C0050C0901A10185031601F8
:1005C00000269C021A01002A9C02751095018100E8
:1005D000C005010906A101050719E029E715002555
:1005E0000195087501810205081901290595057510
:1005F0000191029501750391010507190029F7156D
:1006000000250195F875018102C01201100100005A
:100610000008EDFE071301000102000109026D0050
:10062000040100A0190904000001030101000921CF
:10063000110100012240000705810308000A090496
:1006400001000103010200092111010001224D00F6
:100650000705820308000A090402000103000000E4
:100660000921110100012236000705830308000A51
:100670000904030001030000000921110100012207
:10068000390007058403200001040309041603450B
:1006900000720067006F0044006F00780020004582
:1006A000005A00000016034500720067006F004406
:1006B000006F007800200045005A0000000011245F
:1006C0001FBECFEFDAE0DEBFCDBF04B603FE27C00A
:1006D0008091380390913903A0913A03B0913B0384
:1006E000873020EB920727E0A20720EBB207B9F48E
:1006F000109238031092390310923A0310923B0380
:1007000014BE84B7877F84BF88E10FB6F8948093C6
:100710006000109260000FBEE0E0FFE3099511E079
:10072000A0E0B1E0ECE1FAE502C005900D92A03E38
:10073000B107D9F713E0A0EEB1E001C01D92A833D4
:10074000B107E1F70E9404260C940C2D0C940000D4
:100750001092B9008AE08093B800089594EA9093CB
:10076000BC009091BC0097FFFCCF9091B900987F9E
:10077000983011F0903199F48093BB0084E8809315
:10078000BC008091BC0087FFFCCF9091B900987F9E
:10079000983139F081E0903429F480E0089581E0C7
:1007A000089580E0089584E98093BC008091BC00A6
:1007B00084FDFCCF08958093BB0084E88093BC0047
:1007C0008091BC0087FFFCCF9091B900987F81E0B9
:1007D000983209F480E0089584E88093BC00809109
:1007E000BC0087FFFCCF8091BB00089580B38C7064
:1007F00080BB81B3836F81BB089580910101882301
:10080000A9F480E40E94AE0380930101882361F47F
:1008100082E10E94DB0380930101882329F48FEF9A
:100820000E94DB03809301010E94D30384B1807F87
:1008300084B985B1807F85B98AB1837F8AB98BB14C
:10084000837F8BB93E98469808950E94BC05089511
:100850000E94520A809301010E94FD030E94F60348
:10086000E0EEF1E0AFEEB1E011921D9281E0EE3EDC
:10087000F807D1F70E945D0708950E94520A8093FD
:1008800001010E94FD030E94F603E0EEF1E0AFEEED
:10089000B1E011921D9281E0EE3EF807D1F7089584
:1008A0006F927F929F92AF92BF92CF92DF92EF9220
:1008B000FF920F931F93DF93CF930F92CDB7DEB7C5
:1008C00080910101882379F08091EE018F5F809300
:1008D000EE01882341F40E94520A8093010188238B
:1008E00011F40E94E3090FEE11E0780166247724E9
:1008F00021E0C22ED12C90EAA92E85E0B82E262D1B
:10090000273040F580910101882309F045C080E43B
:1009100069820E94AE038093010129818823A9F492
:1009200082E10E94DB03809301012981882369F41D
:10093000C601062C02C0880F991F0A94E2F7809521
:100940000E94DB0380930101298129830E94D30344
:10095000298122C02A30B1F02B3028F4283061F0F0
:10096000293039F40CC02C3091F02C3070F02D303F
:1009700089F0209A289810C0219A29980DC0229AAF
:100980002A980AC0239A2B9807C0529A01C0539AFA
:100990005B9802C03E9A46988A2D8A95F1F72730D7
:1009A00018F580910101882309F044C080E40E9479
:1009B000AE0380930101882399F483E10E94DB0355
:1009C00080930101882361F481E40E94AE03809347
:1009D0000101882329F40E94EC03982E909401C011
:1009E00099240E94D30327C081E0789980E0799B05
:1009F00002C090E001C092E0892B7C9B02C090E095
:100A000001C094E0982B7D9B02C080E001C088E08B
:100A1000992E982A7E9B02C080E001C080E1982A2E
:100A20008FB18095881F8827881F8295880F807EC8
:100A3000982A01C09924D7018C91891519F09C92AC
:100A4000B09200010E94FD030894611C711C08947F
:100A5000E11CF11CBEE06B16710409F050CF8091CF
:100A60000001882399F0815080930001882321F0B0
:100A700085E08A95F1F70AC0E0EEF1E0D8018D91AA
:100A80008D018193B1E00D3F1B07C1F70E94600704
:100A900081E00F90CF91DF911F910F91FF90EF9028
:100AA000DF90CF90BF90AF909F907F906F90089510
:100AB00021E030E002C0220F331F6A95E2F7E82FF1
:100AC000F0E0E052FE4F808190E02823392381E05E
:100AD0002115310509F480E00895E0EEF1E0E80F1A
:100AE000F11D808108950895FC01613081F061302D
:100AF00018F0623099F40FC08281882321F085EECE
:100B00000E9404130BC085EE0E94D71307C0828198
:100B1000882339F403C08281882331F420E030E057
:100B200005C029EF32E002C028EC32E0C901089587
:100B300008950F931F9327982F9810E018C0812FC6
:100B4000602F0E945805882361F0C8010E94CF1CC5
:100B50009C01205E30402830310518F4279A2F9AE6
:100B600003C00F5F063059F71F5F1E3011F000E021
:100B7000E6CF1F910F9108956091880270918902CC
:100B800080918A0290918B020E94FF1D56985E9878
:100B900025982D9826982E9827982F98813019F00F
:100BA000823031F403C0259A2D9A02C0269A2E9ADB
:100BB0000E949905089581E0089581E008950E94BA
:100BC000DD0508950E945E1784EC99E020E931E08C
:100BD000F9013197F1F70197D9F70E94641F089541
:100BE0000F931F93CF93DF938C01FC01C081D181C0
:100BF000CE010E94881CBE010E946B07EC01B80167
:100C00000E94DF05882309F406C1CE01B8010E94C5
:100C10009509882309F4FFC0CE01B8010E94290B71
:100C2000882309F4F8C0FDC0F8018281882309F403
:100C3000F2C00E94E205EFC0F8018281882309F426
:100C4000EAC08091B10281608093B102E4C0F801F2
:100C50008281882309F4DFC00E94970EDCC0F8016E
:100C60008281882309F4D7C00E94590ED4C0F801AC
:100C70008281882309F4CFC00E94F00DCCC0882364
:100C800009F4C9C00E94CF0DC6C0F8018281882333
:100C900009F4C1C00E94BC0DBEC0882309F4BBC0CA
:100CA0000E94A90DB8C0F8018281882309F4B3C05D
:100CB0000E948D0DB0C0F8018281882309F4ABC079
:100CC0000E94710DA8C0F8018281882309F49FC099
:100CD0000E94691E882311F40E94461E0E947F1EF6
:100CE00010922A03FE01E350F047E231F10540F48F
:100CF000EA5AFF4FEE0FFF1F0590F491E02D099483
:100D000081602DC082602BC0846029C0886027C0AC
:100D1000806125C0806223C0806421C080681FC0BC
:100D20008C601DC08E7F1BC08D7F19C08B7F17C04C
:100D3000877F15C08F7E13C08F7D11C08F7B0FC042
:100D40008F770DC0837F0BC0982F991F9927991F0C
:100D500021E092279795992797958F77892B8093F4
:100D60002903809129030E94841E0E945E1753C0AC
:100D7000F8018281882351F01092FD010E94011F29
:100D8000909300028093FF0182E022C08091FD01D8
:100D9000882379F48091FF01909100020E940E1F38
:100DA000883C910530F486E20E94041386E20E949A
:100DB000D71382E024C0F8018281882361F0109269
:100DC000FE010E94011F909300028093FF0180E2C8
:100DD0000E94291420C08091FE01882379F480911B
:100DE000FF01909100020E940E1F883C910530F493
:100DF00087E20E94041387E20E94D71380E20E94D8
:100E0000301409C081E08093FD018093FE01C80188
:100E10000E94DB0501C080E0DF91CF911F910F910F
:100E20000895F0E7C633DF0709F421CF80E7C73321
:100E3000D807E8F490E7C531D90778F4E0E7C23085
:100E4000DE0708F040CFF0E7C030DF0709F4ECCE52
:100E500080E7C130D807B1F6EFCE90E7C433D907A9
:100E600009F4F5CEE0E7C533DE0761F6F8CEF0E72A
:100E7000CA33DF0709F417CF80E7CB33D80768F40C
:100E800090E7C833D90709F400CFF8018281F0E771
:100E9000C933DF0708F001CFF2CE80E7CC33D807A3
:100EA00009F466CF90E7CC33D90708F404CFE0E724
:100EB000CD33DE0709F0A6CF7ECF0E943B0A08950E
:100EC0000E942504089508950E94630708950E94D2
:100ED000640708950895E62FF0E0EE0FFF1F9CE0F1
:100EE000799F90011124E20FF31F98EA899FC001B6
:100EF0001124E80FF91FE053FF4F25913491C901E8
:100F00000895FC01EE0FFF1FE853FD4F259134912A
:100F1000C90108950E946B070E9408099C0140E4E2
:100F200080309407C0F580E32030380708F0CFC048
:100F3000203E3105E8F4203C310508F058C0283A3D
:100F4000310588F4253A310508F055C021303105C6
:100F500009F415C12130310508F40EC124303105E2
:100F600008F40AC153C12D3B310508F005C14EC03C
:100F70002F3F310509F048F4203F310508F09DC0AE
:100F8000283E310508F0F8C041C140E22030340766
:100F900008F495C096C083E52030380780F442E518
:100FA0002030340708F0B6C081E52030380708F05B
:100FB000ABC040E52030340708F08FC08BC085E51A
:100FC0002030380730F444E52030340708F0C5C03D
:100FD000B9C086E52030380708F4C5C0C901805083
:100FE000904640E18030940708F0C6C0C2C0C901F5
:100FF000805C904068C0253A310509F4C3C0263AA8
:10100000310509F4C2C023E830E400C1283A3105B3
:1010100009F4BEC0293A310509F4BDC02A3A3105A8
:1010200009F4BCC02B3A310509F4BBC02C3A310598
:1010300009F4BAC02B3B310509F4B9C02C3B31058A
:1010400009F4B8C02D3A310509F4B7C0203B310589
:1010500009F4B6C02E3A310509F4B5C02F3A31056E
:1010600009F4B4C0213B310509F4B3C0223B31057A
:1010700009F4B2C0233B310509F4B1C0243B31056A
:1010800009F4B0C0253B310509F4AFC0263B31055A
:1010900009F4AEC0273B310509F4ADC0283B31054A
:1010A00009F4ACC0293B310509F4ABC02A3B31053A
:1010B00009F0AAC02AE236E4A9C03065A7C03F7192
:1010C000A5C0C9019F700E9481079C019FC030701C
:1010D000306C9CC03F70306A99C0422F4F70E4E082
:1010E00036952795EA95E1F7922F937080E0242FAB
:1010F0002695269530E075E0220F331F7A95E1F7AB
:10110000282B392B3C6811C0922F80E09C01216F65
:10111000306A7CC0822F2695269530E065E0220F4C
:10112000331F6A95E1F73C68482F437081E090E0F7
:1011300002C0880F991F4A95E2F78F719070282B93
:10114000392B64C0822F2695269530E055E0220F7A
:10115000331F5A95E1F73A68E7CF922F80E09C0160
:10116000246F306A53C030E02F713070322F222745
:1011700001C03F7030624AC020E030E047C021E04B
:1011800030E044C021E830E441C022E830E43EC011
:1011900022EE34E43BC029EE34E438C02AEE34E4D5
:1011A00035C025EB34E432C026EB34E42FC023EB0A
:1011B00034E42CC024EB34E429C027EB34E426C00B
:1011C0002CEC34E423C02DEC34E420C023E835E4D7
:1011D0001DC02AE835E41AC022E935E417C024E925
:1011E00035E414C021E236E411C023E236E40EC037
:1011F00024E236E40BC025E236E408C026E236E4F9
:1012000005C027E236E402C020E034E4C9010895B5
:101210009C018238910591F183389105C8F481339E
:10122000910509F463C08233910548F48932910530
:1012300009F455C08A32910509F074C05EC0853347
:10124000910509F445C08933910509F06BC016C0BA
:10125000833E910541F1843E910540F4803E910525
:10126000A1F0823E910509F05DC016C0863E910551
:10127000F9F0873E910509F055C021C080912903FE
:1012800080FD42C081FF4EC03FC08091290380FF96
:1012900049C029E330E046C08091290382FF42C063
:1012A00084FF35C012C08091290382FF0CC032C078
:1012B0008091290383FF36C084FF2FC006C0809130
:1012C000290383FD2DC084FF2DC020E030E02AC01B
:1012D0008091290385FF26C029E230E023C0809158
:1012E000290385FF1FC025E330E01CC0809129033E
:1012F00086FF18C02AE230E015C08091290386FFDE
:1013000011C021E330E00EC020EE30E00BC023EE30
:1013100030E008C022EE30E005C027EE30E002C029
:1013200026EE30E0C90108950895CF93DF93EC01D4
:10133000FB018281882309F442C080910102882345
:1013400031F5F0E7C531DF07D1F50E94940981E05E
:10135000809301020E94011F909303028093020276
:1013600010920E02109205021092040210920702CF
:1013700010920602109209021092080210920B02BB
:1013800010920A0210920D0210920C0216C0809167
:101390000202909103020E940E1F883C910578F48E
:1013A00080910E02E82FF0E0EE0FFF1FEC5FFD4F83
:1013B000D183C0838F5F80930E0280E001C081E003
:1013C000DF91CF91089556985E9825982D9826988C
:1013D0002E9827982F988FEF90E090938900809314
:1013E000880090938B0080938A0090938D00809367
:1013F0008C00259A2D9A84EF91E020E931E0F901E3
:101400003197F1F70197D9F7269A2E9A84EF91E058
:1014100020E931E0F9013197F1F70197D9F7279ADF
:101420002F9A84EF91E020E931E0F9013197F1F74B
:101430000197D9F725982D9884EF91E020E931E0C4
:10144000F9013197F1F70197D9F726982E9884EF93
:1014500091E020E931E0F9013197F1F70197D9F7EF
:1014600027982F9856985E9825982D9826982E980C
:1014700027982F98089589EA8093800089E08093C7
:10148000810024982C983F988AB18F7C8AB96E98F5
:10149000479A8BB180638BB9769A0E94E3090E94C8
:1014A000980508951F9380E2809301011FB7F89477
:1014B00080910F02882371F40E94A80381E0809339
:1014C0000F0280E197E220E931E0F9013197F1F76D
:1014D0000197D9F780E40E94AE038093010188232D
:1014E00071F50E94DB0380930101882341F50E947E
:1014F000DB0380930101882311F58FE30E94DB0356
:10150000809301018823D9F40E94D30380E40E94D0
:10151000AE0380930101882391F48CE00E94DB03E9
:1015200080930101882359F40E94DB038093010119
:10153000882329F48FE30E94DB03809301010E943A
:10154000D3031FBF809101011F910895882351F09B
:10155000282F30E08A3018F4235E3F4F05C0265014
:10156000304002C027E230E0C901089580911002A6
:10157000813059F0813028F08230C1F0843051F54B
:101580001DC082EE0E94041325C080EE0E94041349
:1015900081EE0E94041388E10E94041388E10E94F6
:1015A000D71381EE0E94D71380EE12C082EE0E9404
:1015B000041387E50E94041387E50AC086EE0E94A3
:1015C000041386EE0E94D71388E10E94041388E179
:1015D0000E94D71380E49CE90197F1F70895809168
:1015E0001002813041F0813010F0823051F482EEEF
:1015F0000E94D71308958CE20E9404138CE20E948B
:10160000D7130895FF920F931F93CF93DF938C010D
:10161000CCE0D0E0C8010C2E02C0969587950A94C4
:10162000E2F79FE0F92EF8228F2D0E94A60A0E9471
:1016300004138F2D0E94A60A0E94D71324973FEF10
:10164000CC3FD30739F7DF91CF911F910F91FF90D6
:101650000895CF93DF93EC0180E8C130D80760F0A4
:10166000FB018281882341F00E94B60ACE019F7758
:101670000E94020B0E94EF0A81E0DF91CF91089552
:10168000882319F05198599A02C0519A5998509844
:10169000589A95E0292F2A95F1F7509A58989A95DB
:1016A000F1F7882311F0519A599885E08A95F1F75E
:1016B00008958BB18C7F8BB95098589A5198599A4C
:1016C00085E08A95F1F708958AB18C7F8AB985E023
:1016D000982F9A95F1F7519A5998982F9A95F1F772
:1016E000509A58988A95F1F708955098589A85E03D
:1016F000982F9A95F1F75198599A8A95F1F708958C
:101700000F931F93082F18E0802F80780E94400BC2
:10171000000F1150C9F780E00E94400B85E0982F20
:101720009A95F1F78A95F1F780E01F910F9108954E
:10173000FC018BB1942F909598238BB1842B2FB7FC
:10174000F89412C0319148E08BB9000000C037FF17
:101750009BB9330F000000C000C000C09BB900C09F
:101760004A9591F7615070406115710559F72FBF87
:101770000895AF92BF92CF92DF92EF92FF920F93B4
:101780001F93CF93DF93D82EC92EEB01AFB6B09045
:10179000BC00F8948091BC008B7F8093BC000E94B9
:1017A000590B0E94640B84E80E94800BCC0FDD1F54
:1017B000CC0FDD1F8E01C601E92EF82E07C0F70100
:1017C00081917F010E94800B01501040011511058D
:1017D000B1F70E94750BAFBEB092BC00579A8D2D29
:1017E0009C2DBE0140E80E94980BDF91CF911F9184
:1017F0000F91FF90EF90DF90CF90BF90AF90089542
:10180000F9018183608342830895CF92DF92EF9242
:10181000FF920F931F93CF93DF937901662309F40F
:1018200056C0C42EDD242FEF30E0261B31092C9D3D
:1018300080012D9D100D3C9D100D1124012F110FC5
:10184000110BE02FC01AD108CCE3D0E0BE010E94FA
:101850009D2C9B01BC01C69EC001C79E900DD69ECB
:10186000900D1124BE010E949D2C22303105E9F01B
:101870002330310538F42115310571F0213031055F
:1018800051F50EC024303105C9F02430310588F0FF
:101890002530310501F516C0262F200F502F15C019
:1018A000E42FE61B502F242F19C0562F500F242F42
:1018B00003C0242F261B542FE02F10C0E60F542FF7
:1018C000202F0CC0542F561B202FE42F07C0542F5D
:1018D000242FE42F03C050E020E0E0E08E2F90E0C2
:1018E00082509D4FFC01849130E022503D4FF90120
:1018F0006491E52FF0E0E250FD4F449197010E9482
:10190000000CDF91CF911F910F91FF90EF90DF902E
:10191000CF90089588E090E00E94CC2C0895AB0110
:10192000BC0188E090E00E94EA2C089583E0809357
:10193000E1021092E2028FEF8093E3028093E402CF
:101940006091E1027091E2028091E3029091E402E1
:101950000E948F0C08958091E10280FF03C089EE00
:1019600092E00CC0E9EEF2E011821082128234960D
:1019700083E0E532F807C1F7CF01CC976FE070E064
:101980000E94B90B0895E9EEF2E0818360834283FF
:10199000349693E0E532F907C1F70E94AB0C089545
:1019A000EF92FF920F931F93DF93CF9300D000D05D
:1019B000CDB7DEB7182FE92EF62E042F2091E102C5
:1019C0003091E2024091E3025091E4022093E5025B
:1019D0003093E6024093E7025093E8028091E102DF
:1019E00080FF21C0812F402F9E012F5F3F4F0E941B
:1019F000050C912F9795992797958091E5028F7700
:101A0000892B8093E502E794EE24E79416951E292E
:101A10001093E602F092E7020093E8028A8169815E
:101A20004B810E94C30C0F900F900F900F90CF919D
:101A3000DF911F910F91FF90EF900895EF92FF9229
:101A40000F931F93182FF92EE62E042F8091E10299
:101A500080FF42C0982F9E77923029F4812F9F2DCE
:101A60000E94D00C1AC0982F96959F73292F225C44
:101A70002F73243018F40091E4020FC0965C9F731A
:101A8000993058F4881F8827881FF090E2021F2D94
:101A9000110F182BFF1CFF24FF1C912F97959927DE
:101AA00097958091E1028F77892B8093E102F794DB
:101AB000FF24F79416951F291093E202E092E302A7
:101AC0000093E4026091E1027091E2028091E302EE
:101AD0009091E4020E948F0C1F910F91FF90EF9064
:101AE00008954091E402842F90E08C30910514F029
:101AF0004C5001C040E08091E102881F8827881F78
:101B00009091E202292F220F822B991F9927991F6A
:101B10006091E3020E941E0D08954091E402842F1B
:101B200090E0843F910514F4445F01C04FEF809131
:101B3000E102881F8827881F9091E202292F220F37
:101B4000822B991F9927991F6091E3020E941E0D15
:101B500008958091E102881F8827881F9091E202F2
:101B6000292F220F822B991F9927991F60E04091FE
:101B7000E4020E941E0D08958091E102881F8827CB
:101B8000881F9091E202292F220F822B991F9927FB
:101B9000991F6FEF4091E4020E941E0D089520915D
:101BA000E102221F2227221F3091E202432F440F1D
:101BB000842F822B932F991F9927991F8C30910581
:101BC0001CF4845A9E4F01C00C9768E671E00E9495
:101BD000B12C6091E3024091E4020E941E0D089531
:101BE0002091E102221F2227221F3091E202432F7F
:101BF000440F842F822B932F991F9927991F0C969E
:101C000068E671E00E94B12C6091E3024091E40229
:101C10000E941E0D089581E080931202089581E0D4
:101C20008093120208951092120208959091E10299
:101C300090FF3EC0882319F49178926004C0917897
:101C4000893120F090639093E10205C08F73880F73
:101C5000892B8093E1026091E1027091E202809110
:101C6000E3029091E4020E948F0C8091E102982F90
:101C70009E77923019F40E94130E07C08695825CFD
:101C80008F73863110F40E940F0E8091E102881F3D
:101C90008827881F9091E202292F220F822B991FFB
:101CA0009927991F6091E3024091E4020E941E0D62
:101CB00008958091E10286958F738F5F893108F0D6
:101CC00081E00E94160E08958091B1028160809398
:101CD000B10281E0809311020E94691E882321F4E1
:101CE0000E94461E0E94960C0E948A0C6093E1029C
:101CF0007093E2028093E3029093E4026E7761F4C2
:101D00000E94960C0E948A0C6093E1027093E2029A
:101D10008093E3029093E4020E940B0E8091E10213
:101D200080FF04C086958F730E94160E08958091DF
:101D3000E10291E080FD90E08091E1028E7F892BAD
:101D40008093E1026091E1027091E2028091E302EE
:101D50009091E4020E948F0C8091E10280FF05C007
:101D600086958F730E94160E08950E94130E84EFBD
:101D700091E020E931E0F9013197F1F70197D9F7C6
:101D80000E94AB0C08951F93182F8091250290910B
:101D900026020E940E1FE12FF0E0E250FB4FE4917B
:101DA000F0E08E179F0710F10E94011F909326020A
:101DB00080932502E0912702F0E0E250FC4F44912D
:101DC0008091E102881F8827881F9091E202292FC5
:101DD000220F822B991F9927991F6091E3020E947D
:101DE000D00C809127028F5F809327021F91089566
:101DF0001F93182F80912102909122020E940E1FA2
:101E0000E12FF0E0EE5FFA4FE491F0E08E179F07CC
:101E1000E8F00E94011F909322028093210280919A
:101E20002302909124026091E3024091E4020E9417
:101E3000D00C8091230290912402019668E671E013
:101E40000E949D2C90932402809323021F91089559
:101E5000CF92DF92FF920F931F93CF93DF93F82ED1
:101E600080911D0290911E020E940E1FEF2DE6959B
:101E7000F0E0EE5FFA4FE491F0E08E179F07E8F193
:101E80000E94011F90931E0280931D0200E010E04B
:101E9000C0E0D0E058E6C52E51E0D52E80911F025B
:101EA00090912002800F911FB6010E949D2C9E01EF
:101EB000220F331F220F331F27513D4F6091E30242
:101EC0004091E4020E94050C2196085E1F4FCF301E
:101ED000D10521F70E94AB0C80911F029091200246
:101EE000F0FE06C0019668E671E00E949D2C01C0DC
:101EF00001979093200280931F02DF91CF911F9151
:101F00000F91FF90DF90CF9008958F929F92AF92A4
:101F1000BF92CF92DF92EF92FF920F931F93CF93D6
:101F2000DF93082F80FF03C0AA24AA9402C0AA242A
:101F3000A39480911A0290911B020E940E1F069595
:101F4000E02FF0E0E85FFA4FE491F0E08E179F0792
:101F500008F46DC00E94011F90931B0280931A0227
:101F600009EE12E0C0E0D0E0E7E08E2E912CF801FF
:101F700011821082128277E0E72EF12CBB246E01D1
:101F8000CC0CDD1CCC0CDD1C89EE92E0C80ED91EF9
:101F900080911C028B0D87FD815F992787FD9095AD
:101FA000C817D90711F52091E102221F2227221F0D
:101FB0003091E202E32FEE0F4091E40250E0E49E04
:101FC000C001E59E900DF49E900D1124B4010E9475
:101FD000B12C462F8E2F822B932F991F9927991F53
:101FE0006091E30296010E94050CBA0C0894E10886
:101FF000F108E114F10461F621960C5F1F4FCF3018
:10200000D10509F0B4CF0E94AB0C80911C029A2D2F
:10201000913031F4882311F48EE007C0815005C05F
:1020200090E00196BE010E94B12C80931C02DF91CA
:10203000CF911F910F91FF90EF90DF90CF90BF90C5
:10204000AF909F908F9008958F929F92BF92CF9262
:10205000DF92EF92FF920F931F93DF93CF93CDB751
:10206000DEB7EC970FB6F894DEBF0FBECDBF082FDA
:1020700080911702909118020E940E1FE02FF0E04D
:10208000E55FFA4FE491F0E08E179F0708F493C0E4
:102090000E94011F90931802809317028E010F5F18
:1020A0001F4FEE24FF244801F80111821082128292
:1020B000BB246701CC0CDD1CCC0CDD1CC80CD91C6E
:1020C00080910201B89E802D112490911902890FF0
:1020D00087FD03C08F301CF403C080E001C08EE098
:1020E000992787FD9095E816F906A1F48091E10201
:1020F000881F8827881F9091E202292F220F822BA8
:10210000991F9927991F6091E3024091E40296017B
:102110000E94050CB394FB2DF73091F60894E11C56
:10212000F11C0C5F1F4F8FE0E816F10409F0BCCFE3
:10213000E9EEF2E029E030E00FE010E07E010894E3
:10214000E11CF11CC901B8010E94B12CA82FB0E01C
:10215000AA0FBB1FAA0FBB1FAE0DBF1D11968C91FE
:10216000119781838C91808312968C911297828330
:102170002F5F3F4F34962831310521F70E94AB0C79
:102180009091020180911902913049F48A3F2CF418
:1021900089EF809319028FEF08C081500AC0863101
:1021A0003CF085E18093190281E08093020103C035
:1021B0008F5F80931902EC960FB6F894DEBF0FBEC6
:1021C000CDBFCF91DF911F910F91FF90EF90DF90E6
:1021D000CF90BF909F908F900895EF92FF920F93B2
:1021E0001F93CF93DF9380911302909114020E946A
:1021F0000E1F23E0883E9207F0F10E94011F90938A
:102200001402809313028091150290911602019698
:10221000817090709093160280931502EC0164E037
:10222000CC0FDD1F6A95E1F7C81BD90B00E010E069
:1022300050E5E52EF12CCE01817090709801220FAF
:10224000331F220F331F27513D4FAC014E9DC0015C
:102250004F9D900D5E9D900D11246091E302409181
:10226000E4020E94050C0F5F1F4F2F960F301105DF
:1022700011F70E94AB0CDF91CF911F910F91FF904E
:10228000EF90089580911202882399F18091E102E4
:1022900086958F73982F925C9F73943020F48250B0
:1022A0000E94C30E0895982F965C9F73933020F47C
:1022B00086500E94F80E0895982F995C9F7396306F
:1022C00020F489500E94280F0895982F9F5C9F73D7
:1022D000963020F48F500E94850F0895982F955DB9
:1022E0009F73933020F485510E94241008950E941A
:1022F000ED10089590932D0280932C020895E091A3
:102300002C02F0912D02309729F00190F081E02D00
:102310000995089580E00895E0912C02F0912D0236
:10232000309721F00280F381E02D09950895E09126
:102330002C02F0912D02309721F00480F581E02DE0
:102340000995089520912A0230912B028217930754
:1023500071F090932B0280932A02E0912C02F0916D
:102360002D02309721F00680F781E02D0995089520
:1023700020912802309129028217930771F09093DF
:10238000290280932802E0912C02F0912D023097CF
:1023900021F00084F185E02D0995089508950E94AB
:1023A000CE1108950E94F81E0E9428040E94881FE2
:1023B0000E94640E08950E94670708959F92AF924D
:1023C000BF92CF92DF92EF92FF920F931F93DF9312
:1023D000CF93CDB7DEB72A970FB6F894DEBF0FBE06
:1023E000CDBF0E9450042FE2C22E22E0D22E00E088
:1023F00010E0A02E802F0E946D05B82EF60191905E
:102400006F01982609F441C08091B10281FF02C09A
:102410000E947305EE24FF24492D50E0BA010E2CD2
:1024200002C0759567950A94E2F760FF27C091E0B6
:10243000C92ED12C0E2C02C0CC0CDD1C0A94E2F764
:102440000E94011FE982AA822B2D30E02C213D2120
:1024500061E02115310509F460E06B838160782F1C
:102460009D838C8349815A818D810E94C012F8011D
:10247000E15DFD4F80818C2580831DC00894E11CA7
:10248000F11CF6E0EF16F10449F60F5F1F4F0E3016
:10249000110509F0AECF0E94011F2FEF2E832F836D
:1024A00018868160782F9A8789874FEF5FEF60E009
:1024B0008A850E94C0120E94272100912E020E944C
:1024C0007F11081731F00E947F1180932E020E9425
:1024D000DB112A960FB6F894DEBF0FBECDBFCF91A9
:1024E000DF911F910F91FF90EF90DF90CF90BF9001
:1024F000AF909F900895CF93DF93DC011196EC91FC
:1025000011978C91482F50E021E030E002C0220F5B
:10251000331F8A95E2F712968C911297882319F04F
:1025200080913D0206C0CE2FD0E0C25CDD4F888195
:1025300082238823D9F08E2F90E0FC01EE0FFF1F3D
:10254000E80FF91FEE0FFF1FE40FF51FEE0FFF1F3F
:10255000EB5EFE4F4081518111965C934E93FC01DE
:10256000E25CFD4F8081822B808307C0F0E0E25C5B
:10257000FD4F2095808128232083DF91CF910895FE
:10258000DF93CF93CDB7DEB72B970FB6F894DEBFAE
:102590000FBECDBF4F83588769877A878B878A851F
:1025A0009B85009739F05F3F41F481E090E04F3F19
:1025B00021F405C081E090E002C080E090E0882333
:1025C00021F4CE0107960E947B12DE01119686E06F
:1025D000FD0111928A95E9F7FE01379685E0019099
:1025E0000D928150E1F749815A816B817C818D8107
:1025F0009E810E946F1A2B960FB6F894DEBF0FBE15
:10260000CDBFCF91DF9108951F93182F882309F430
:10261000CCC0823859F40E947F1181FDC6C089E385
:102620000E94101D0E94CE1D89E30CC0833879F4EE
:102630000E947F1180FDB9C083E50E94101D0E9499
:10264000CE1D83E50E944C1D0E94CE1DAEC0843875
:1026500059F40E947F1182FDA8C087E40E94101DDA
:102660000E94CE1D87E4EECF8450813A50F4812F32
:102670000E947623882309F098C0812F0E94101DA4
:10268000E3CF812F805E883050F4177081E090E0B6
:1026900001C0880F1A95EAF70E948B1DD5CF812FB4
:1026A000855A833078F4153A29F0163A31F482E8E5
:1026B00090E005C081E890E002C083E890E00E94CD
:1026C000A21173C0812F885A853108F06EC0183A64
:1026D00061F1193A69F11A3A71F11B3A79F11C3A30
:1026E00081F11B3B89F11C3B91F11D3A99F1103BA3
:1026F000A1F11E3AA9F11F3AB1F1113BB9F1123B18
:10270000C1F1133BC9F1143BD1F1153BD9F1163B93
:10271000E1F1173BE9F1183BF1F1193BF9F11A3BF3
:1027200009F03FC08AE292E03EC082EE90E03BC0FA
:1027300089EE90E038C08AEE90E035C085EB90E0FD
:1027400032C086EB90E02FC083EB90E02CC084EB8E
:1027500090E029C087EB90E026C08CEC90E023C08D
:102760008DEC90E020C083E891E01DC08AE891E004
:102770001AC082E991E017C084E991E014C081E2B7
:1027800092E011C083E292E00EC084E292E00BC0BE
:1027900085E292E008C086E292E005C087E292E01E
:1027A00002C080E090E00E94B8111F910895882334
:1027B00009F44EC0823859F40E947F1181FF48C04D
:1027C00089E30E94101D0E94CE1D89E30CC083384E
:1027D00069F40E947F1180FF3BC083E50E94101DB9
:1027E0000E94CE1D83E50E944C1D1FC0843859F401
:1027F0000E947F1182FF2CC087E40E94101D0E945E
:10280000CE1D87E4F0CF982F9450913A60F3982F23
:10281000905E983068F4282F277081E090E001C026
:10282000880F2A95EAF70E94911D0E94CE1D0895F7
:10283000982F955A933028F480E090E00E94A211DE
:102840000895885A853120F480E090E00E94B81104
:102850000895882321F00E948B1D0E94CE1D0895AB
:10286000882321F00E94911D0E94CE1D08958F9211
:102870009F92AF92BF92CF92DF92EF92FF920F930F
:102880001F93DF93CF930F92CDB7DEB74C01172F75
:102890003FE0E32EE622B62EB294B69427E0B222B1
:1028A00093E0A92EA722C72EC694C69483E0C8221F
:1028B000F4010281F580F2948FE0F822002321F0E8
:1028C00069830E94A81D698169830E94091D69812D
:1028D000882381F0002371F0862F805E883050F0CD
:1028E00082E00E94F21C0E94091DDD24D394D826A8
:1028F000698101C0DD24212F22952F7030E0253021
:10290000310509F4F7C02630310574F4243031055F
:102910000CF0C2C0F3E0CF228A2D83701C7F2230DE
:1029200031050CF06FC019C02C3031056CF42A3021
:1029300031050CF089C12630310509F410C2283068
:10294000310509F05CC2EDC02C30310509F4F7C146
:102950002F30310509F053C245C2182BCC0CCC0CDA
:10296000137F1C29812F807F1F70882311F01295FF
:10297000107F002339F11123E1F0607F6E298B2D48
:102980008295880F807E6F71682B862F805E8830DD
:1029900010F0662329F4812F69830E948B1D04C0E7
:1029A000812F69830E949B1D698169830E94CE1DCE
:1029B0006981607F6E298B2D8295880F807E6F7173
:1029C000862B63C0607F6E29B294BB0C00EEB022F0
:1029D0006F716B29862F69830E94D7136981112338
:1029E00009F40DC2862F805E883010F0662321F432
:1029F000812F0E94911D03C0812F0E94A11D0E9462
:102A0000CE1DFDC1182BCC0CCC0C137F1C29812FA3
:102A1000807F1F70803211F4812F03C0812F829537
:102A2000807F607F6E29B294BB0C10EEB1226F7173
:102A30006B2919F0613019F517C0002351F0FF2000
:102A400009F426C19F2D913009F022C10E94BB1DBF
:102A5000D6C1FF2021F0EF2DE13009F4D0C18983E8
:102A60000E94BE1D89811AC1002329F0FF2DF2307A
:102A700008F0C5C10DC1FF2009F0C1C10FC100237D
:102A800039F0FF2009F404C1862F0E940413B7C156
:102A9000FF2009F403C14AC12C2D30E02115310576
:102AA00029F02130310509F0AAC112C0002359F0E4
:102AB000607F6E298B2D8295880F807E6F71862BAB
:102AC000912F937002C080E090E00E94A21197C104
:102AD000002359F0607F6E298B2D8295880F807EB0
:102AE0006F71862B912F937002C080E090E00E945E
:102AF000B81185C18FE0E822607F8B2D8295880F09
:102B0000807E002331F06E296F71862B0E942A206F
:102B100005C06E296F71862B0E9494200E941C2193
:102B20006EC1AA2009F046C0002309F068C1BB0CA1
:102B3000BB0CFF2400E010E00B2C04C0EE0CFF1CCB
:102B4000001F111F0A94D2F764FF10C06FE070E0FD
:102B500080E090E004C0660F771F881F991FBA9429
:102B6000D2F7609570958095909504C060E070E014
:102B700080E090E02C2D30E02230310569F02330E8
:102B8000310589F06E297F29802B912B2130310569
:102B900071F00E94CD1B33C16E297F29802B912BB0
:102BA0000E94DC1B2CC10E94CD1BC801B7010E94F2
:102BB000BE1B25C1002319F0A0FE21C102C0A1FE49
:102BC0001EC1BB0CBB0CFF2400E010E00B2C04C0AA
:102BD000EE0CFF1C001F111F0A94D2F764FF10C0F7
:102BE0006FE070E080E090E004C0660F771F881F00
:102BF000991FBA94D2F7609570958095909504C00E
:102C000060E070E080E090E02C2D30E02230310573
:102C100069F02330310589F06E297F29802B912BB3
:102C20002130310571F00E94691CE9C06E297F29AD
:102C3000802B912B0E94781CE2C00E94691CC80165
:102C4000B7010E945A1CDBC0607F6E29B294BB0C96
:102C5000B0EEBB226F716B29613F91F1623F30F49E
:102C6000603E08F457C0603F48F01BC0633F91F1DD
:102C7000633F58F1643F09F04DC036C0AFE0EA2E23
:102C8000E622812F8F71002331F00E94021C8E2DCD
:102C90000E942914B4C00E941E1C8E2D0E94301464
:102CA000AEC0002321F0FF2009F0A9C004C09F2D71
:102CB000923008F0A4C0812F8F710E943E1C9FC0EB
:102CC000812F8F710023C1F12CC0812F8F710023C0
:102CD00041F132C0002329F0812F8F710E94F21B35
:102CE0008EC00E94EB1B8BC0002349F01F71812F07
:102CF0000E94021C812F63E00E94E81C80C081E0DA
:102D00000E94F21CEF2DE23008F479C082E00E94AC
:102D1000F21C75C0002341F0FF2009F0B5CE812FD1
:102D20008F710E94021C6BC0FF2021F0862F0E9431
:102D3000D71365C0812F8F710E941E1C60C0607FF9
:102D40006E29B294BB0CF0EEBF226F716B29412F3C
:102D50004F70C4010E9474050E942E1B50C0607FFA
:102D60006E298B2D8295880F807E6F71682B623F54
:102D7000B9F1633F28F4603F51F0613F11F518C08D
:102D8000643F89F0643F30F0653FD9F408C0002308
:102D900049F112C081E0802780933D0223C00023C7
:102DA00009F581E0F9CF0023E9F410923D021AC041
:102DB000FF20B1F00023B1F480913D0291E089271A
:102DC000EBCFFF2069F0002329F0862F69830E9452
:102DD000041304C0862F69830E94D713698102C03F
:102DE00000933D02607F6E29B294BB0CE0EEBE22E0
:102DF0006F716B29412F4F70C4010E946A07DD205B
:102E000089F00E94E41C80FD0DC0F40112820E9432
:102E1000DE1C0E94021CC4010E9420170E94DE1CBE
:102E20000E941E1C0F90CF91DF911F910F91FF9078
:102E3000EF90DF90CF90BF90AF909F908F900895CC
:102E40000F931F93CF93DF93EC01288139818B81FE
:102E50009C810097C9F03F3F91F42F3F81F414C04B
:102E6000688179818A810E94DA1C8C010E94871C0A
:102E70000E94BA1BCE01B8010E94371405C0CE01D2
:102E80000E94F005882361F7DF91CF911F910F9188
:102E900008950E94A81D0E94B81D0E947D1D0E94D9
:102EA000CE1D0E94C7210E941C2180E090E00E945C
:102EB000A21180E090E00E94B81108950E94981D30
:102EC0000E94491708950E94CF1C492F4F70929578
:102ED0009F70292F30E02C3031056CF42A303105F9
:102EE0008CF4223031050CF1243031055CF02630B1
:102EF0003105D9F411C02C303105A1F02F30310546
:102F0000A1F410C0803F61F0813F18F4803E68F466
:102F100007C0843F51F404C0803E10F0813F39F473
:102F200081E0089581E043FD03C080E0089580E0E2
:102F30000895DF93CF9300D000D00F92CDB7DEB7C6
:102F40000F900F900F900F900F90CF91DF910895F9
:102F5000DF93CF9300D000D000D0CDB7DEB7269658
:102F60000FB6F894DEBF0FBECDBFCF91DF910895AD
:102F70004115510551F06F3F59F421E030E08F3F8A
:102F800011F020E030E0C901089581E090E008955B
:102F900080E090E00895CF93DF938091530217C0B3
:102FA000C82FD0E0FE01EE0FFF1FEC0FFD1FEE0F4C
:102FB000FF1FEC5AFD4F40815181628173818481F2
:102FC00095810E94A81721969E012770822F9091CB
:102FD0005202891729F7DF91CF91089540914C0251
:102FE00050914D0260914E0270914F0280915002BB
:102FF000909151020E94A8170895AF92BF92DF925C
:10300000EF92FF920F931F93DF93CF930F92CDB761
:10301000DEB78091510282958F7009F05EC0809179
:103020004E02882309F459C090915302D090520265
:10303000E0904C02F0904D02A0904F02B0905002F0
:1030400085010095109546C08E2D6F2DA5019983A1
:103050000E94B81799818823D9F5292F30E0F9010A
:10306000EE0FFF1FE20FF31FEE0FFF1FEC5AFD4F95
:103070008181F81669F58081E81651F582818823EF
:1030800039F5438154814A155B0518F04A195B09EB
:1030900002C0400F511F483C5105D0F480915102AD
:1030A0008F70806180935102F901EE0FFF1FE20FD4
:1030B000F31FEE0FFF1FE75AFD4F80818F70806175
:1030C00080838CE492E00E9420170E94CB1705C0F9
:1030D0009F5F97709D1509F0B7CF0F90CF91DF914B
:1030E0001F910F91FF90EF90DF90BF90AF900895E8
:1030F0007F928F929F92AF92BF92CF92DF92EF9288
:10310000FF920F931F93DF93CF93CDB7DEB76197F5
:103110000FB6F894DEBF0FBECDBF8C01DE01119655
:10312000FC0185E001900D928150E1F7D801AC904F
:1031300011969C9011971296BC9012971396ED9051
:10314000FC90149780904C0270904D02C0904F02FA
:10315000D0905002882D672DA6010E94B8178823B1
:1031600009F07EC180914E02882309F40AC12091A2
:103170005102EC14FD0438F0C7018C199D09883CFC
:10318000910550F0A7C0C094D094CE0CDF1CB8ECD1
:10319000CB16D10408F09EC0822F807F09F058C062
:1031A000791499F48A1489F4BB2079F42F70206182
:1031B000209351020E94EE178CE492E00E942017A7
:1031C00080915102F801858365C18A2D692DA7017F
:1031D0000E94B817882399F5BB20A1F5809153026E
:1031E0002091520216C090E0FC01EE0FFF1FE80F85
:1031F000F91FEE0FFF1FEC5AFD4F3181931639F482
:103200003081A31621F43281332309F043C10196A2
:103210008770821741F753C19F7061F0882351F482
:1032200039C19F7039F0D80115969C911597907F00
:1032300009F430C1805E883008F42CC126C1BB205F
:1032400009F428C18091510281608093510222C10A
:10325000791491F48A1481F4BB2071F4F801258368
:10326000C8010E942017ACE4B2E0F80186E00190AA
:103270000D928150E1F706C189819A810E946317FE
:10328000882309F402C1BB2009F4FFC04091510218
:10329000842F82958F7090E08230910594F0CE015A
:1032A000069626E0DC011D922A95E9F720914C0252
:1032B00030914D023F832E83FA86E9864B870E9428
:1032C0002017ACE4B2E0F80186E001900D92815045
:1032D000E1F7D6C0822F807F91F449815A816B81BA
:1032E0007C818D810E9499170CE412E0C8010E9434
:1032F000201786E0F80111928A95E9F7AEC079149B
:1033000091F48A1481F4BB2071F4D80115962C93A2
:10331000C8010E942017ECE4F2E086E0DF011D9274
:103320008A95E9F7B5C089819A810E94631788233D
:1033300009F4ABC0BB2009F4A8C040915102842F0E
:1033400082958F7090E08230910594F0CE010C96BA
:1033500026E0FC0111922A95E9F720914C02309168
:103360004D023D872C87F88AEF86498B0E942017F3
:10337000ACE4B2E0F80186E001900D928150E1F7F3
:103380007FC0EC14FD0438F0EC18FD08F8ECEF16E3
:10339000F10450F054C0C094D094CE0CDF1C88ECE3
:1033A000C816D10408F04BC0BB2009F46EC07914D4
:1033B00089F58A1479F52091510220FD22C0322F1F
:1033C00032953F70832F90E00097D9F0D801159681
:1033D0002C9315978F30910541F0832F8F5F829545
:1033E000807F2F70282B15962C93C8010E942017E0
:1033F000ACE4B2E0F80186E001900D928150E1F773
:1034000041C0ACE4B2E0F80186E001900D92815039
:10341000E1F73EC089819A810E946317882349F0B1
:10342000ACE4B2E0F80186E001900D928150E1F742
:1034300027C08091510281608093510226C049814A
:103440005A816B817C818D810E949917ECE4F2E0B6
:1034500086E0DF011D928A95E9F70E94EE171AC0F7
:10346000BB2099F089819A810E946317882369F0B3
:10347000ACE4B2E0F80186E001900D928150E1F7F2
:103480000E94FD170E94EE1703C0C8010E9420177A
:1034900081E001C080E061960FB6F894DEBF0FBEF8
:1034A000CDBFCF91DF911F910F91FF90EF90DF90F3
:1034B000CF90BF90AF909F908F907F90089589811B
:1034C0009A810E94CF1C292F22952F7030E0223044
:1034D00031050CF4A1CE24303105BCF6A2CEEF921A
:1034E000FF920F931F93DF93CF93CDB7DEB72C9747
:1034F0000FB6F894DEBF0FBECDBF4F8358876987E4
:103500007A878B879C878E01095F1F4FC8010E94B5
:103510007818882391F04A855B858F8168850E94A1
:10352000B817882309F078C04F81588569857A8556
:103530008B859C850E94A8176FC0DE011196F8014B
:1035400086E001900D928150E1F7EF80F8840A85C2
:103550001B858E2D6F2DA8010E94B817882309F0B6
:103560005BC02091520230E0A9014F5F5F4F47706E
:1035700050708091530290E04817590709F453C0E6
:10358000F901EE0FFF1FE20FF31FEE0FFF1FEC5AC2
:10359000FD4FDE01119686E00D9001928150E1F71A
:1035A000F901EE0FFF1FE20FF31FEE0FFF1FEC5AA2
:1035B000FD4FE082F18214830383409352020E9404
:1035C000CB172AC030E0C901880F991F820F931FC3
:1035D000880F991F8C5A9D4F0E947818882389F173
:1035E0008091530290E0FC01EE0FFF1FE80FF91FDE
:1035F000EE0FFF1FEC5AFD4F4081518162817381B4
:10360000848195810E94A8178091530290E00196D1
:1036100087709070809353022091530280915202E0
:10362000281781F60EC00E945E1710925202109267
:103630005302ECE4F2E086E0DF011D928A95E9F79F
:10364000EBCF2C960FB6F894DEBF0FBECDBFCF9157
:10365000DF911F910F91FF90EF900895DF92EF920D
:10366000FF920F931F93CF93DF93EC01009709F420
:1036700063C0DD2480EAE82E8FE0F82E01E010E040
:10368000FE0121968491843748F4843008F044C0C8
:10369000813079F0823009F04FC01CC0853709F4C1
:1036A00037C0853750F1982F9458903708F044C0B0
:1036B00036C0FE0121968491982F905E983060F577
:1036C0008770902F01C0990F8A95EAF7892F0E9481
:1036D000AB1D10C0FE0121968491982F905E98300A
:1036E000F8F48770902F01C0990F8A95EAF7892F17
:1036F0000E94B11D0E94CE1D15C0FE012196E491CD
:1037000004C0C7010197F1F7E150EE23D1F70AC0D9
:10371000FE012196D49006C00E94041303C08F7747
:103720000E94D7132D2D04C0C7010197F1F7215036
:10373000222309F4A5CFF8CFDF91CF911F910F91EC
:10374000FF90EF90DF90089560938402709385025C
:1037500080938602909387020E9449170895609390
:1037600088027093890280938A0290938B020E9450
:103770004917089508950E94A41B0895209184027A
:10378000309185024091860250918702622B732B03
:10379000842B952B0E94A41B0895209184023091C4
:1037A000850240918602509187026223732384230D
:1037B00095230E94A41B08952091840230918502D4
:1037C00040918602509187026227732784279527AC
:1037D0000E94A41B089560E070E080E090E00E94E9
:1037E000AF1B089521E030E040E050E004C0220F1C
:1037F000331F441F551F8A95D2F7CA01B9010E9491
:10380000AF1B089521E030E040E050E004C0220FFB
:10381000331F441F551F8A95D2F7809188029091DB
:103820008902A0918A02B0918B02282B392B4A2B56
:103830005B2BCA01B9010E94AF1B089521E030E063
:1038400040E050E004C0220F331F441F551F8A95EB
:10385000D2F72095309540955095809188029091AF
:103860008902A0918A02B0918B02282339234A232E
:103870005B23CA01B9010E94AF1B089521E030E02B
:1038800040E050E004C0220F331F441F551F8A95AB
:10389000D2F78091880290918902A0918A02B0911A
:1038A0008B02282739274A275B27CA01B9010E94C2
:1038B000AF1B0895209188023091890240918A02BD
:1038C00050918B02622B732B842B952B0E94AF1B84
:1038D0000895209188023091890240918A02509186
:1038E0008B0262237323842395230E94AF1B0895C8
:1038F000209188023091890240918A0250918B0276
:1039000062277327842795270E94AF1B0895089587
:10391000BF92CF92DF92EF92FF920F931F93CF93BC
:10392000DF936C01E0908402F090850200918602A2
:10393000109187028091880290918902A0918A0259
:10394000B0918B02E82AF92A0A2B1B2BCFE1D0E099
:10395000BC2ED801C7010C2E04C0B695A79597952B
:1039600087950A94D2F781709070009739F08C2F68
:10397000B6010E948A078130910531F421973FEF0B
:10398000CF3FD30729F7BB248B2DDF91CF911F9118
:103990000F91FF90EF90DF90CF90BF900895CF935D
:1039A000DF93EC010E94881CBE010E948A07DF9110
:1039B000CF910895CB010E94CF1C08958091900271
:1039C00085958595859508958091900287700895D5
:1039D000982F990F990F990F962B909390020E9410
:1039E000021C089540919002809584238093900258
:1039F000982F977069F450E0282F332727FD3095D2
:103A00004217530729F08595859585950E941E1CC0
:103A1000089590919002977081E009F480E00895F4
:103A200090910A019923E1F09091290397FF18C022
:103A3000982F9695969596959F3168F5E09103019C
:103A4000F0910401E90FF11D877021E030E002C020
:103A5000220F331F8A95E2F78181822B818308959B
:103A60002091030130910401D9011296EFEF90E00B
:103A70004D91481781F0EF3F19F4442309F4E92FE1
:103A80009F5F9E31A9F7EF3F31F0FF27E7FDF095EB
:103A9000E20FF31F8283089590910A019923E9F0C0
:103AA0009091290397FF19C0982F96959695969512
:103AB0009F3110F5E0910301F0910401E90FF11D30
:103AC000877021E030E002C0220F331F8A95E2F7B1
:103AD000209581812823218308952091030130912D
:103AE000040190E0F901E90FF11D4281481709F442
:103AF00012829F5F9E31B1F7089580E090E00196B9
:103B0000E0910301F0910401E80FF91F10828F3159
:103B10009105A9F7089590918C02982B90938C02AF
:103B20000895809590918C02982390938C0208952B
:103B300010928C02089590918F02982B90938F028F
:103B40000895809590918F02982390938F02089505
:103B500010928F02089590918E02982B90938E026E
:103B60000895809590918E02982390938E020895E7
:103B700010928E02089580938D02089510928D0206
:103B80000895E0910301F091040131969FE180E0F6
:103B9000219121118F5F9150D9F70895E091030190
:103BA000F091040180918C028083E0910301F091F7
:103BB0000401808190918F02892B8083E091030121
:103BC000F0910401808190918E02892B80839091E5
:103BD0008D02992369F0E0910301F0910401808145
:103BE000892B80830E94C11D882311F00E94BE1D75
:103BF00080910301909104010E948C1108959C0111
:103C000044275527211531054105510521F49B0114
:103C1000AC01E0E001C0E0E19927852F742F632F0C
:103C2000611571058105910519F0E85F9B01AC01F3
:103C3000CA01B901B4E09695879577956795BA95CD
:103C4000D1F7611571058105910519F0EC5F9B01B4
:103C5000AC01CA01B901A2E0969587957795679561
:103C6000AA95D1F7611571058105910519F0EE5FEF
:103C70009B01AC0156954795379527952115310540
:103C80004105510509F0EF5F8E2F089580E090E027
:103C90006DEE7EEF0E94F62C82E090E060E00E94E4
:103CA000D82C83E090E060E00E94D82C84E090E083
:103CB00060E00E94D82C85E090E060E00E94D82C63
:103CC00088E090E040E050E060E070E00E94EA2C84
:103CD000089580E090E00E94D22C21E03EEF8D3EDE
:103CE000930709F020E0822F089582E090E00E947F
:103CF000C42C089583E090E00E94C42C089584E0D1
:103D000090E00E94C42C0895682F84E090E00E9407
:103D1000D82C089580912F03843021F11092B202A3
:103D200020E488E190E00FB6F894A89580936000B5
:103D30000FBE2093600080E00E94670783B7817FF9
:103D4000846083BF83B7816083BF7894889583B78D
:103D50008E7F83BF88E10FB6F89480936000109245
:103D600060000FBE089508951F930E943D040E94B5
:103D700050040E94B31E10E0812F0E946D0588231D
:103D800021F41F5F1E30C1F701C081E01F9108952B
:103D90000E945E170E947F110E94670708951F927C
:103DA0000F920FB60F9211248F939F93AF93BF93EF
:103DB0008091B202882399F4809125039091260383
:103DC000A0912703B09128034196A11DB11D8093B6
:103DD000250390932603A0932703B0932803BF9154
:103DE000AF919F918F910F900FBE0F901F901895DC
:103DF00082E084BD93E095BD9AEF97BD80936E00FD
:103E000008958FB7F89420912503309126034091AF
:103E10002703509128038FBFC9010895EF92FF92A5
:103E20000F931F93FC018FB7F894209125033091D5
:103E3000260340912703509128038FBF8FEFE82E70
:103E40008FEFF82E012D112DE222F32204231523EA
:103E5000BF0180E090E0E616F7060807190720F09A
:103E6000B9016E1B7F0B05C0BF0160957095620F95
:103E7000731FCB011F910F91FF90EF9008951F9238
:103E80000F920FB60F9211248F939F93AF93BF930E
:103E90008091250390912603A0912703B0912803D8
:103EA0000196A11DB11D8093250390932603A09335
:103EB0002703B0932803BF91AF919F918F910F90EB
:103EC0000FBE0F901F9018950E946828F89480E20A
:103ED0009EE420E931E0F9013197F1F70197D9F734
:103EE00087E090EBA7E0B0EB809338039093390321
:103EF000A0933A03B0933B032CE088E190E00FB627
:103F0000F894A895809360000FBE20936000FFCFC7
:103F10000E94691E882311F40E94461E0E94751E8D
:103F20008093B1020E947F1E8093290310922A037E
:103F30000E947A1E682F70E080E090E00E94BB1B18
:103F400008958091BA0280FF0BC06091060185E060
:103F5000689FB0011124759567957595679530C078
:103F600081FF09C06091060185E0689FB0011124BE
:103F70007595679525C082FF07C06091060185E0B1
:103F8000689FB00111241CC08091B9028823F9F008
:103F90006091070120910601861728F065E0269FB1
:103FA000B00111240DC0829F90011124C901880F16
:103FB000991F880F991F820F931F70E00E94B12CE8
:103FC0006038710540F46115710539F002C065E093
:103FD00070E0862F08958FE7089581E0089580911D
:103FE000BA0280FF08C06091080170E0759567957E
:103FF0007595679523C081FF06C06091080170E048
:10400000759567951BC082FF03C0609108010BC0C6
:104010008091B9028823D9F060910901909108013B
:10402000861718F0692F70E006C0899FC00111241F
:1040300070E00E94B12C6038710528F4611571059B
:1040400021F0862F08958FE7089581E0089561E0BB
:1040500070E0F4CF803F21F40E94A11F819504C03D
:10406000813F29F40E94A11F8093B6020895823FE8
:1040700021F40E94A11F819504C0833F29F40E946E
:10408000A11F8093B5020895893F19F40E94EF1F84
:1040900005C08A3F31F40E94EF1F81958093B702DB
:1040A00008958B3F21F40E94EF1F819504C08C3F3F
:1040B00029F40E94EF1F8093B8020895843F21F4F1
:1040C0008091B402816017C0853F21F48091B402D1
:1040D000826011C0863F21F48091B40284600BC0DD
:1040E000873F21F48091B402886005C0883F31F495
:1040F0008091B40280618093B40208958D3F21F4D1
:104100008091BA02816005C08E3F31F48091BA027D
:1041100082608093BA0208958F3F29F48091BA0299
:1041200084608093BA020895803F29F48091B6029A
:1041300087FF6FC007C0813F41F48091B602181617
:104140000CF067C01092B60264C0823F29F48091DF
:10415000B50287FF5EC007C0833F41F48091B5027E
:1041600018160CF056C01092B50253C0893F29F4BE
:104170008091B70218163CF04CC08A3F39F4809108
:10418000B70287FF46C01092B70243C08B3F29F4A5
:104190008091B80287FF3DC006C08C3F39F4809102
:1041A000B8021816B4F51092B80233C0843F21F457
:1041B0008091B4028E7F05C0853F31F48091B402B6
:1041C0008D7F8093B40225C0863F21F48091B40294
:1041D0008B7FF7CF873F21F48091B402877FF1CFA7
:1041E000883F21F48091B4028F7EEBCF8D3F21F484
:1041F0008091BA028E7F0BC08E3F21F48091BA026B
:104200008D7F05C08F3F29F48091BA028B7F809308
:10421000BA028091B502882371F48091B602882396
:1042200051F48091B702882331F48091B802882339
:1042300011F41092B902089584EB92E00E94971154
:104240000E94011F9093BC028093BB0208951F93AC
:104250008091BB029091BC020E940E1F4091B90256
:10426000442321F02091050130E006C03091B302D3
:104270002AE0329F900111248217930708F485C029
:104280008091B502882369F49091B602992349F48C
:104290009091B702992329F49091B802992309F4D7
:1042A00074C04F3F19F04F5F4093B902181624F4C1
:1042B0000E94A11F8093B5028091B50287FF05C0BF
:1042C0000E94A11F81958093B5028091B6021816B5
:1042D00024F40E94A11F8093B6028091B60287FF4A
:1042E00005C00E94A11F81958093B6026091B5021E
:1042F000662339F11091B602112319F1772767FD72
:104300007095872F972F0E94AE2B23E333E343E36F
:104310005FE30E94122C0E947B2B6093B502612FF9
:10432000772767FD7095872F972F0E94AE2B23E389
:1043300033E343E35FE30E94122C0E947B2B6093E4
:10434000B6028091B702181624F40E94EF1F8093E2
:10435000B7028091B70287FF05C00E94EF1F8195C9
:104360008093B7028091B802181624F40E94EF1FC0
:104370008093B8028091B80287FF05C00E94EF1FAA
:1043800081958093B8020E941C211F910895E4EB4F
:10439000F2E085E0DF011D928A95E9F71092B902FB
:1043A0001092BA020895833099F1843030F481304C
:1043B00069F0823009F06FC01AC0853009F44AC034
:1043C0008530B8F1863009F066C055C02091B3023F
:1043D000822F90E0860F911D8F3F910520F4620F90
:1043E0006093B30208958FEF8093B30208952091F4
:1043F0000501822F90E0860F911D8F3F910520F4DB
:10440000620F6093050108958FEF80930501089571
:1044100020910601822F90E0860F911D8F3F91051C
:1044200020F4620F6093060108958FEF80930601D8
:10443000089520910701822F90E0860F911D8F3FF4
:10444000910520F4620F6093070108958FEF809328
:104450000701089520910801822F90E0860F911D99
:104460008F3F910520F4620F6093080108958FEF4C
:1044700080930801089520910901822F90E0860F12
:10448000911D8F3F910520F4620F609309010895FB
:104490008FEF809309010895833031F1843030F437
:1044A000813061F0823009F04AC013C0853091F14B
:1044B000853028F1863009F042C037C08091B302C0
:1044C000681720F4861B8093B30208951092B302FC
:1044D000089580910501681720F4861B80930501DB
:1044E000089510920501089580910601681720F43F
:1044F000861B80930601089510920601089580910D
:104500000701681720F4861B809307010895109215
:104510000701089580910801681720F4861B809395
:104520000801089510920801089580910901681703
:1045300020F4861B809309010895109209010895C3
:1045400021E030E040E050E004C0220F331F441F60
:10455000551F8A95D2F7CA01B9010E94BB1B0E9460
:104560005E170895873220F58E3108F0A7C080319C
:1045700009F47AC0813170F4873009F44AC0883078
:1045800018F4863069F52EC08B3009F49CC08E304B
:1045900039F559C0863109F496C0873118F4813154
:1045A000F9F478C0893109F48EC08B31C9F441C067
:1045B000883309F488C0893348F4893209F480C00B
:1045C000853309F47DC0873259F47AC0833409F405
:1045D00077C0843418F48A3318F06EC0883459F0E8
:1045E00080E008958091B102807F8093B10281E0E4
:1045F0008093BD0208950E945E1780E197E220E952
:1046000031E0F9013197F1F70197D9F70E94641F62
:104610005AC08091B102982F909591708E7F892B0E
:104620008093B102992309F04EC0817F8093B1023B
:104630004AC09091B102892F869580958170282F6C
:10464000220F9D7F0BC09091B102892F8695869590
:1046500080958170282F220F220F9B7F922B9093A1
:10466000B102882381F112C09091B102892F869501
:104670008695869580958170282F220F220F220F14
:10468000977F922B9093B1028823F9F091609093D9
:10469000B10219C00E945E1790912903892F881FCB
:1046A0008827881F21E082278795882787959F770D
:1046B000982B9093290307C0895303C08D5101C0E3
:1046C00080E00E94A02281E0089581E0089580E0CA
:1046D000089580E008958E518A3030F4E82FF0E09C
:1046E000E354FE4F8081089580E008951F93182FB2
:1046F0008091BD02813089F0813020F0823009F054
:1047000093C03DC0E0910301F091040180818131AB
:1047100069F0823209F08AC009C0E0910301F0918A
:1047200004018081813111F0823251F4812F0E9485
:104730006723882309F07FC0812F0E94B22279C0AD
:10474000812F0E946923882309F075C0143169F014
:10475000153130F41B3009F46EC0103169F408C013
:10476000193219F0183341F466C01092BD0204C02A
:1047700082E08093BD025FC080E090E05AC01932B1
:10478000E9F01A3270F41431C9F0153120F4173001
:1047900009F04EC038C0812F8E51863008F048C0D5
:1047A00018C01E3451F11F3420F41B3409F040C0EE
:1047B0001EC01135C1F01235D9F511C08091BE026D
:1047C000882319F01092BE0233C081E08093BD02AD
:1047D00030C0812F0E946B238093BE0229C080913C
:1047E000BE0261E007C08091BE0261E009C0809115
:1047F000BE026AE00E94D3211BC08091BE026AE023
:104800000E944C2215C01092B30284E180930501EE
:1048100088E08093060195E090930701809308015A
:1048200088E28093090104C01092BD0280E001C0BB
:1048300081E01F91089581E090E0FBCF8091E0023C
:104840000895DF93CF9300D00F92CDB7DEB740919C
:104850002F0321E030E0443011F020E030E021155A
:10486000310521F123E029839B838A832093E9008A
:104870008FEF25ED05C0922F9A95F1F7882329F047
:104880009091E800815095FFF6CF8091E80085FF78
:104890000DC0CE01019663E070E040E050E00E9460
:1048A000AD268091E8008E778093E8000F900F90FE
:1048B0000F90CF91DF910895DF93CF9300D00F92A7
:1048C000CDB7DEB720912F03243039F522E02983BC
:1048D000805890409B838A8383E08093E9008FEF28
:1048E00025ED05C0922F9A95F1F7882329F0909134
:1048F000E800815095FFF6CF8091E80085FF0DC05C
:10490000CE01019663E070E040E050E00E94AD26E9
:104910008091E8008E778093E8000F900F900F90C1
:10492000CF91DF91089540912F0321E030E0443092
:1049300011F020E030E021153105F9F022E020935C
:10494000E9002FEF45ED05C0342F3A95F1F722230A
:1049500029F03091E800215035FFF6CF2091E80092
:1049600025FF0BC065E070E040E050E00E94AD26FE
:104970008091E8008E778093E80008950F931F934D
:104980008C0180912F0321E030E0843011F020E091
:1049900030E02115310509F44AC080910A018823CD
:1049A000E1F08091290387FF18C084E08093E9003B
:1049B0008FEF25E105C0922F9A95F1F7882329F012
:1049C0009091E800815095FFF6CF8091E80085FF37
:1049D0002EC0C80160E270E017C081E08093E9005A
:1049E0008FEF25ED05C0922F9A95F1F7882329F0D6
:1049F0009091E800815095FFF6CF8091E80085FF07
:104A000016C0C80168E070E040E050E00E94AD26AA
:104A10008091E8008E778093E800A0ECB2E0802FD0
:104A2000912FFC0180E201900D928150E1F71F91DE
:104A30000F91089580912E03882349F40E946828DD
:104A40000E94C5288091E20084608093E20008956E
:104A500010922E030895089508950E94C81E089587
:104A600081E061EC42E00E94DC2782E061EC42E000
:104A70000E94DC2783E061EC42E00E94DC2784E0B6
:104A800061EC42E20E94DC2708958091310383307B
:104A900009F458C0843030F4813071F0823009F06C
:104AA000B2C099C08A3009F486C08B3009F46BC05B
:104AB000893009F0A8C020C080913003813A09F004
:104AC000A2C08091E800877F8093E8008091340342
:104AD00090913503009721F060E080E090E003C002
:104AE00060E280EC92E070E00E940C278091E80088
:104AF0008B778093E800089580913003813209F02C
:104B000082C08091340390913503009721F0833067
:104B1000910509F078C08091E800877F8093E800D4
:104B200005C080912F03882309F46DC08091E800AF
:104B300082FFF7CF8091F1008093E0028091E8003E
:104B40008B771CC080913003813A09F05CC0809162
:104B5000340390913503009709F055C08091E80027
:104B6000877F8093E8008091E80080FFFCCF8091F0
:104B70000A018093F1008091E8008E778093E8002D
:104B80000E9413280895809130038132E1F58091CD
:104B90003403909135030097B1F58091E800877F49
:104BA0008093E8000E9413288091320380930A01C9
:104BB0000E945E17089580913003813221F5809123
:104BC000E800877F8093E8000E94132880913303D8
:104BD0008093BF02089580913003813AA1F48091BF
:104BE000E800877F8093E8008091E80080FFFCCF99
:104BF0008091BF028093F1008091E8008E778093CE
:104C0000E8000E941328089584B7877F84BF88E155
:104C10000FB6F89480936000109260000FBE80E899
:104C200080936100109261000E94CF110E94682859
:104C30000E94C5288091E20084608093E20078940D
:104C40000E945E2B0E94D2118BE091E00E947A11AB
:104C50000CC00E948A1E80912D03882331F00E948F
:104C6000B41E882311F00E94972680912F0385306F
:104C700081F30E94DE110E944211F7CF9330A1F020
:104C8000943038F4913009F443C0923009F045C0B3
:104C900006C09132E9F0923209F03FC027C02DE6FC
:104CA00030E0ECE1F6E03DC0813049F0813018F0B1
:104CB000823099F508C0E9E8F6E0249107C0EDE8F4
:104CC000F6E0249103C0E5EAF6E0249130E029C043
:104CD000643018F5E62FF0E0EE0FFF1FE953FE4FAA
:104CE0000190F081E02D29E030E01BC06430A8F491
:104CF00070E0660F771FFB01E153FE4F0190F081DA
:104D0000E02D69527E4FDB012D913C91119709C036
:104D100022E130E0EAE0F6E004C020E030E0E0E04C
:104D2000F0E0DA011196FC93EE93C901089580E159
:104D300089BD82E189BD09B400FEFDCF8091D80014
:104D40008F7D8093D8008091E00082608093E000A6
:104D50008091E00081FDFCCF08958F929F92BF92D9
:104D6000CF92DF92EF92FF920F931F93DF93CF9337
:104D70000F92CDB7DEB7E82E4B018A0199830E94CE
:104D80003428B82E99818823C9F5F92E011511050B
:104D900039F0F80120813181821A930AE20EF31E64
:104DA000CC24DD2426C08091E80085FD17C08091C9
:104DB000E8008E778093E8000115110551F0F801A5
:104DC000808191818C0D9D1D9183808325E0B22E81
:104DD00015C00E943428882361F00FC0F70181912B
:104DE0007F018093F1000894810891080894C11C08
:104DF000D11C81149104B9F601C0B82E8B2D0F90EF
:104E0000CF91DF911F910F91FF90EF90DF90CF90A6
:104E1000BF909F908F900895482F592FFA0180914D
:104E20003603909137038617970718F4BC0140E0CA
:104E30003DC061157105D9F78091E8008E778093A8
:104E4000E800F5CF80912F03882309F447C085300F
:104E500009F446C08091E80083FD3EC08091E800DF
:104E600082FD34C08091E80080FF20C09091F30063
:104E70008091F200392F20E090E0822B932B06C026
:104E800041914093F10061507040019661157105A8
:104E900019F088309105A0F341E08830910509F0C0
:104EA00040E08091E8008E778093E80061157105FD
:104EB00049F6442339F60AC080912F03882371F004
:104EC000853071F08091E80083FD0CC08091E8008E
:104ED00082FFF2CF80E0089581E0089582E0089596
:104EE00083E0089581E00895E82FF92F809136033B
:104EF000909137038617970718F4BC0140E03EC035
:104F000061157105D9F78091E8008E778093E800EC
:104F1000F5CF80912F03882309F448C0853009F428
:104F200047C08091E80083FD3FC08091E80082FD8A
:104F300035C08091E80080FF21C09091F3008091FE
:104F4000F200392F20E090E0822B932B07C0449190
:104F50004093F100319661507040019661157105E2
:104F600019F08830910598F341E08830910509F0F7
:104F700040E08091E8008E778093E800611571052C
:104F800041F6442331F60AC080912F03882371F043
:104F9000853071F08091E80083FD0CC08091E800BD
:104FA00082FFF2CF80E0089581E0089582E00895C5
:104FB00083E0089581E00895982F2CC0292F2F7049
:104FC0002093E900981739F07091EC002091ED00E2
:104FD0005091F00003C0242F762F50E021FF19C01C
:104FE0003091EB003E7F3093EB003091ED003D7F40
:104FF0003093ED003091EB0031603093EB00709313
:10500000EC002093ED005093F0002091EE0027FF7C
:1050100008C09F5F973090F28F708093E90081E025
:10502000089580E008958091300387FF13C004C085
:1050300080912F038823B9F08091E80082FFF8CF98
:105040008091E8008B778093E800089580912F038A
:10505000882349F08091E80080FFF8CF8091E80034
:105060008E778093E80008958091E4009091E500A8
:1050700044E62091EC0020FF26C02091E80020FDAE
:1050800016C020912F032223A1F02530A1F02091FA
:10509000EB0025FD12C02091E4003091E5002817B7
:1050A000390739F3442359F04150C901E2CF80E078
:1050B000089582E0089583E0089581E0089584E0F2
:1050C000089580E008952091E80022FFDACFF9CF1B
:1050D0000E94D7280E94DF28E0EEF0E08081816006
:1050E0008083E8EDF0E080818F77808319BCA7EDA5
:1050F000B0E08C918E7F8C9380818F7E8083109224
:105100002E0308950F931F93CF93DF930E94D72808
:105110000E94DF28C8EDD0E088818F77888388815E
:105120008068888388818F7D888319BC10922F03C3
:1051300010922B0310922D0310922C0300EE10E01E
:10514000F80180818B7F808388818160888380E003
:1051500060E042E00E94DC27E1EEF0E080818E7F9B
:105160008083E2EEF0E080818160808380818860CE
:105170008083F80180818E7F80838881806188832D
:10518000DF91CF911F910F910895E8EDF0E08081BC
:105190008F7E8083E7EDF0E080818160808384E012
:1051A00082BF81E080932E030E9482280895E8ED5B
:1051B000F0E080818E7F80831092E200089510924B
:1051C000DA001092E10008951F920F920FB60F922D
:1051D00011242F933F934F935F936F937F938F93FC
:1051E0009F93AF93BF93EF93FF938091E10082FF72
:1051F0000BC08091E20082FF07C08091E1008B7FAD
:105200008093E1000E945D2B8091DA0080FF1FC037
:105210008091D80080FF1BC08091DA008E7F809340
:10522000DA008091D90080FF0DC080E189BD82E164
:1052300089BD09B400FEFDCF81E080932F030E9459
:105240001A2505C019BC10922F030E9428258091B1
:10525000E10080FF19C08091E20080FF15C08091BD
:10526000E2008E7F8093E2008091E2008061809373
:10527000E2008091D80080628093D80019BC85E05C
:1052800080932F030E942C258091E10084FF30C081
:105290008091E20084FF2CC080E189BD82E189BD5C
:1052A00009B400FEFDCF8091D8008F7D8093D80097
:1052B0008091E1008F7E8093E1008091E2008F7EFB
:1052C0008093E2008091E20081608093E20080910F
:1052D0002B03882311F084E007C08091E30087FF4F
:1052E00002C083E001C081E080932F030E942D253E
:1052F0008091E10083FF29C08091E20083FF25C0F7
:105300008091E100877F8093E10082E080932F030A
:1053100010922B038091E1008E7F8093E1008091B9
:10532000E2008E7F8093E2008091E20080618093B2
:10533000E20080E060E042E00E94DC278091F00023
:1053400088608093F0000E942B25FF91EF91BF9120
:10535000AF919F918F917F916F915F914F913F910D
:105360002F910F900FBE0F901F9018951F920F92C4
:105370000FB60F9211241F932F933F934F935F9378
:105380006F937F938F939F93AF93BF93EF93FF930D
:105390001091E9001F708091EC001092E90080915B
:1053A000F000877F8093F00078940E94F229109299
:1053B000E9008091F00088608093F0001093E9008C
:1053C000FF91EF91BF91AF919F918F917F916F91DD
:1053D0005F914F913F912F911F910F900FBE0F90B2
:1053E0001F9018951F93DF93CF93CDB7DEB7AC977F
:1053F0000FB6F894DEBF0FBECDBFE0E3F3E08091BF
:10540000F100819323E0E833F207C9F70E944525B4
:105410008091E80083FF39C18091300320913103EE
:10542000253009F484C0263040F42130A1F1213028
:1054300070F0233009F029C12EC0283009F4F4C0DF
:10544000293009F404C1263009F01FC194C0803806
:1054500021F0823809F019C108C080912C03909185
:105460002D03992371F082600CC0809134038F70FA
:105470008093E9009091EB0081E095FF80E010922D
:10548000E9009091E800977F9093E8008093F10005
:105490001092F100D4C0882319F0823009F0F5C0D1
:1054A00090E08F719070009729F08230910509F09B
:1054B000ECC00BC080913203813009F0E6C023308C
:1054C00009F080E080932D032CC080913203882363
:1054D00041F5209134032F7009F4D7C02093E900DF
:1054E0008091EB0080FF1DC080913103833021F457
:1054F0008091EB00806213C08091EB00806180930B
:10550000EB0081E090E002C0880F991F2A95E2F736
:105510008093EA001092EA008091EB00886080930B
:10552000EB001092E9008091E800877F8BC0882310
:1055300009F0ABC0109132031F778091E3008078AF
:10554000812B8093E3008091E800877F8093E800BF
:105550000E9413288091E80080FFFCCF8091E30037
:1055600080688093E300112311F083E001C082E0A2
:1055700080932F038AC08058823008F086C08091C3
:1055800032039091330323E08C3D920799F583E039
:105590008C838AE28B835FB7F894DE01159680E0F6
:1055A00090E04EE061E2E42FF0E060935700E49178
:1055B00080FF03C0E295EF704F5FEF702E2F30E059
:1055C000EA3018F0295C3F4F02C0205D3F4F2D9319
:1055D0003D9301968431910531F75FBF8091E800DA
:1055E000877F8093E800CE0103966AE270E00E9414
:1055F0000C2714C060913403AE014F5F5F4F0E94CF
:105600003E26BC01009709F440C08091E800877FE6
:105610008093E80089819A810E9474278091E80034
:105620008B778093E80031C0803879F58091E8006D
:10563000877F8093E80080912B038093F100809115
:10564000E8008E778093E8000E9413281EC088230C
:10565000E1F4909132039230C0F48091E800877FAA
:105660008093E80090932B030E94132880912B03D2
:10567000882321F48091E30087FF02C084E001C009
:1056800081E080932F030E9430258091E80083FF02
:105690000AC08091E800877F8093E8008091EB004A
:1056A00080628093EB00AC960FB6F894DEBF0FBE1D
:1056B000CDBFCF91DF911F91089508951F938091E1
:1056C0002F038823B1F08091E9008F709091EC0056
:1056D00090FF02C010E801C010E0182B1092E90002
:1056E0008091E80083FF02C00E94F2291F7010938E
:1056F000E9001F91089504D06894B1118DC00895F8
:1057000070D088F09F5790F0B92F9927B751A0F02B
:10571000D1F0660F771F881F991F1AF0BA95C9F745
:1057200012C0B13081F077D0B1E0089574C0672F16
:10573000782F8827B85F39F0B93FCCF386957795F5
:105740006795B395D9F73EF49095809570956195DE
:105750007F4F8F4F9F4F0895E89409C097FB3EF409
:1057600090958095709561957F4F8F4F9F4F9923AE
:10577000A9F0F92F96E9BB279395F695879577952C
:105780006795B795F111F8CFFAF4BB0F11F460FFEC
:105790001BC06F5F7F4F8F4F9F4F16C0882311F044
:1057A00096E911C0772321F09EE8872F762F05C058
:1057B000662371F096E8862F70E060E02AF09A95F3
:1057C000660F771F881FDAF7880F9695879597F9E8
:1057D000089557FD9058440F551F59F05F3F71F0E1
:1057E0004795880F97FB991F61F09F3F79F0879548
:1057F0000895121613061406551FF2CF4695F1DFD1
:1058000008C0161617061806991FF1CF8695710560
:10581000610508940895E894BB2766277727CB0194
:1058200097F908950BD078C069D028F06ED018F0A1
:10583000952309F05AC05FC01124EECFCADFA0F350
:10584000959FD1F3950F50E0551F629FF001729F15
:10585000BB27F00DB11D639FAA27F00DB11DAA1F34
:10586000649F6627B00DA11D661F829F2227B00D81
:10587000A11D621F739FB00DA11D621F839FA00D0C
:10588000611D221F749F3327A00D611D231F849F5C
:10589000600D211D822F762F6A2F11249F575040B3
:1058A0008AF0E1F088234AF0EE0FFF1FBB1F661F4E
:1058B000771F881F91505040A9F79E3F510570F007
:1058C00014C0AACF5F3FECF3983EDCF38695779542
:1058D0006795B795F795E7959F5FC1F7FE2B880F02
:1058E000911D9695879597F9089597F99F6780E898
:1058F00070E060E008959FEF80EC089500240A9422
:105900001616170618060906089500240A9412169A
:105910001306140605060895092E0394000C11F4CD
:10592000882352F0BB0F40F4BF2B11F460FF04C07A
:105930006F5F7F4F8F4F9F4F0895AA1BBB1B51E195
:1059400007C0AA1FBB1FA617B70710F0A61BB70BEF
:10595000881F991F5A95A9F780959095BC01CD0194
:10596000089597FB092E07260AD077FD04D0E5DFBE
:1059700006D000201AF4709561957F4F0895F6F7D0
:10598000909581959F4F0895F999FECF92BD81BD65
:10599000F89A992780B50895A6E1B0E044E050E078
:1059A0000C94FE2CA8E1B0E042E050E00C94FE2CF8
:1059B000262FF999FECF92BD81BDF89A019700B4C8
:1059C000021639F01FBA20BD0FB6F894FA9AF99A68
:1059D0000FBE08950396272F0E94D92C0E94D82C21
:1059E000252F0E94D92C242F0C94D92C0196272FD7
:1059F0000E94D92C0C94D82CDC01CB01FC01F99924
:105A0000FECF06C0F2BDE1BDF89A319600B40D920A
:0C5A100041505040B8F70895F894FFCFC3
:105A1C000520FF91021408050828011E24BE2493BA
:105A2C00245C242124000D010D020D030D040D0531
:105A3C000D000C010C020C030C040C050C000B01EA
:105A4C000B020B030B040B050B000A010A020A03E1
:105A5C000A040A050A0009010902090309040905D7
:105A6C0009000801080208030804080508000701DA
:105A7C0007020703070407050700060106020603D1
:105A8C0006040605060005010502050305040505C7
:105A9C0005000401040204030404040504000301CA
:105AAC0003020303030403050300020102020203C1
:105ABC0002040205020001010102010301040105B7
:105ACC0001000001000200030004000500010203B4
